:020000040800F2
:10000000000B0020990100086B1A0008B7160008C1
:10001000691A000845030008E526000800000000F2
:10002000000000000000000000000000AD1A000801
:100030001D040008000000008D1A0008FD1C0008C7
:10004000B3010008B3010008B3010008B3010008C0
:10005000B3010008B3010008B3010008B3010008B0
:10006000B3010008B3010008B3010008B3010008A0
:10007000B3010008B3010008B3010008B301000890
:100080004903000855030008B3010008B301000844
:10009000B3010008B3010008B3010008B301000870
:1000A000B3010008B3010008B3010008B301000860
:1000B000B3010008B3010008B3010008B301000850
:1000C000B3010008B3010008B3010008B301000840
:1000D000B3010008C5260008D1260008B3010008B6
:1000E000B3010008B3010008B3010008B301000820
:1000F000B3010008B3010008B3010008B301000810
:10010000B3010008B3010008B3010008B3010008FF
:10011000B3010008B3010008B3010008B3010008EF
:10012000B3010008B301000861030008B30100082F
:10013000B3010008B3010008B3010008B3010008CF
:10014000B3010008B3010008B3010008B3010008BF
:10015000B3010008B30100086D030008B3010008F3
:10016000B3010008B3010008B3010008B30100089F
:10017000B3010008B3010008B3010008000000004B
:10018000B3010008DFF80CD000F0CAF800480047BF
:10019000812D0008000B00200648804706480047D4
:1001A000FEE7FEE7FEE7FEE7FEE7FEE7FEE7FEE727
:1001B000FEE7FEE7AD1D0008850100082DE9F05FB0
:1001C0000546002092469B468846064681464024C6
:1001D0001BE0284641464746224600F091F8534628
:1001E0005A46C01A914110D311461846224600F0D3
:1001F00078F82D1A67EB01084F46224601200021AE
:1002000000F06FF817EB00094E41201EA4F1010425
:10021000DFDC484631462A464346BDE8F09F40EAC7
:1002200001039B0703D009E008C9121F08C0042A74
:10023000FAD203E011F8013B00F8013B521EF9D25B
:100240007047D2B201E000F8012B491EFBD2704783
:100250000022F6E710B513460A4604461946FFF792
:10026000F0FF204610BD30B505462A460B4612F871
:10027000010B13F8014B08B1A042F8D01CB10028C3
:1002800002D06D1CF1E7284630BD421C10F8011B5E
:100290000029FBD1801A704730B50546002003467F
:1002A00000E05B1C934205D2EC5CC85C201A01D1D3
:1002B000002CF6D130BD30B50B460146002020227F
:1002C000012409E021FA02F59D4205D303FA02F563
:1002D000491B04FA02F52844151EA2F10102F1DCC3
:1002E00030BD202A04DB203A00FA02F100207047DA
:1002F0009140C2F1200320FA03F319439040704764
:10030000202A04DB203A21FA02F00021704721FA6A
:1003100002F3D040C2F120029140084319467047D1
:10032000064C074D06E0E06840F0010394E8070042
:1003300098471034AC42F6D3FFF728FFDC310008B1
:10034000FC310008FEE70000014800F0C1B80000E1
:1003500078030020014800F0BBB80000D80300205B
:10036000014800F0B5B80000B8020020014800F0D4
:10037000AFB800001803002001681823CAB2103A71
:10038000B2FBF3F2054B6FF30901032A9B5CC365D3
:1003900000D9091D81650846704700002831000812
:1003A00010B5014600208B698A6A4FF0C07453B1C2
:1003B000B3F5005F15D072B1012A0CD0022A0AD021
:1003C000032A09D104E01AB1012A06D0022A03D176
:1003D000C96AC90100D5012010BDC96AA142FAD07D
:1003E00010BD002AF7D0012AF2D0022AF3D0032A46
:1003F000F3D010BD30B50468256825F4802525604C
:10040000046863608368402B036803D099600068C8
:10041000C26030BD9A600068C16030BD70472DE990
:10042000F0410446876D00F0B7FA064694F83500AF
:100430000025022806D08020606584F83450012011
:10044000BDE8F0812068016821F016010160206894
:10045000416921F080014161206C08B9A06C20B194
:100460002068016821F0080101602068016821F01E
:10047000010101600BE000F08FFA801B052806D90E
:100480002020606504F8345F03206070D8E720689E
:100490000068C007EFD194F85C103F208840B86036
:1004A00004F8345F012060700020C9E790F835102F
:1004B000022903D08021416501207047052180F881
:1004C00035100068016821F00101016000207047CB
:1004D0002DE9F84304464FF00009CDF80090634839
:1004E0004FF41651A56D0068B0FBF1F72E6894F833
:1004F0005C10082000FA01F131420FD021680A682F
:1005000052070BD50A6822F004020A6094F85C10C6
:100510008840A860606D40F00100606594F85C1050
:100520004FF0010808FA01F0304208D0216849690B
:10053000090604D5A860606D40F00200606594F87B
:100540005C1004208840304208D02168096889077F
:1005500004D5A860606D40F00400606594F85C10FC
:1005600010208840304218D021680968090714D546
:10057000A86020680168490304D50068000308D515
:10058000A16C07E00168C90503D4016821F00801E6
:100590000160216C09B12046884794F85C10202046
:1005A0008840304231D021680968C9062DD5A8603D
:1005B00094F8350005282068016806D0490347D51E
:1005C000006800031DD4616C1CE021F0160101607D
:1005D0002068416921F080014161206C08B9A06C5C
:1005E00020B12068016821F00801016094F85C10D6
:1005F0003F208840A86084F8349084F83580216DCD
:100600001FE0E16B09B120468847606D00282BD0C0
:10061000606DC00714D0052084F83500206801689B
:1006200021F0010101600098401C0090B84203D8FD
:1006300020680068C007F6D184F8349084F83580CB
:10064000E16C002910D001B02046BDE8F043084716
:100650000168C905D5D4016821F01001016084F852
:10066000349084F83580CCE7BDE8F883040000209E
:100670002DE9F041044600F08FF906465CB10025F3
:1006800084F83450022084F835002068016821F095
:10069000010101600DE00120BDE8F08100F07CF96E
:1006A000801B052805D920206065032084F83500CB
:1006B000F2E720680068C007F0D12268116820487E
:1006C0000140D4E901031843D4E903363343184306
:1006D00063691843A3691843E3691843236A1843FD
:1006E0000843616A042903D1D4E90B131943084371
:1006F000106020684069666A20F0070130460E43AA
:10070000012704280CD1A06A0643E06A40B12046C4
:10071000FFF746FE20B14020606584F83570BAE7E7
:10072000206846612046FFF727FE94F85C203F21B1
:1007300091408160656584F835700020ACE7000069
:100740003F8010F02DE9F0410446866D90F83400AA
:10075000002501280DD0012084F8340094F835706C
:100760000020012F07D084F8340002252846BDE878
:10077000F0810220FBE7022784F83570606520468F
:10078000FFF738FE94F85C103F208840B060206886
:10079000016841F0160101602068416941F0800163
:1007A0004161206C20B12068016841F008010160BE
:1007B0002068016841F001010160D7E731B500F020
:1007C000EBF8009C0546601C00D0641C00F0E4F8C7
:1007D000401BA042FAD338BD2DE9F84FDFF888B1AD
:1007E00000224FF001084FF0030A4FF00F090BF100
:1007F000040E00BF0B6808FA02F42340A3426ED136
:100800004D68022D01D0122D0ED1D50800EB850CBC
:10081000DCF820505607F70E09FA07F6B5430E69C3
:10082000BE402E43CCF82060066855000F790AFAC6
:1008300005FC07F0030726EA0C06AF4037430760C4
:100840004E68012E05D0022E03D0112E01D0122E9B
:100850000ED18668CF6826EA0C06AF403743876022
:100860004668A6430C79C4F30014944034434460B2
:10087000C4688E6824EA0C04AE402643C6604C6807
:10088000E4006AD5394C256845F480452560246824
:1008900022F0030504F480440094354C2E19D6F858
:1008A000084895072F0F09FA07F5AC43314DA842C8
:1008B00001D1002529E0304DA84201D1012524E0D5
:1008C0002E4DA84201D102251FE02D4DA84201D195
:1008D00003251AE02B4DA84202D1042515E03CE087
:1008E000294DA84201D105250FE0284DA84201D18C
:1008F00006250AE0264DA84201D1072505E0254D31
:10090000A84201D1082500E00925BD402543C6F8CD
:100910000858DBF800405D464E689C43F60300D55E
:100920001C432C60DEF8004075464E689C43B603BD
:1009300000D51C432C600C4D08352C684E689C4338
:10094000F60200D51C432C60074D0C352C684E6810
:100950009C43B60200D51C432C60521C102AFFF4A5
:1009600049AFBDE8F88F0000003C01404438024028
:100970000030014000000240000402400008024034
:10098000000C024000100240001402400018024017
:10099000001C02400020024001480068704700002F
:1009A0000000002002480168491C016070470000F7
:1009B000000000200B4810B5016841F4007101608F
:1009C000016841F480610160016841F48071016057
:1009D000032000F075F8002000F006F800F018F889
:1009E000002010BD003C024010B5044607484FF4FB
:1009F0007A710068B0FBF1F000F098FB002221460C
:100A0000501E00F03DF8002010BD00000400002042
:100A100010B5032000F054F8002211466FF00B00CF
:100A200000F02EF8002211466FF00A0000F028F8BE
:100A3000002211466FF0090000F022F80022114652
:100A4000501F00F01DF800221146101F00F018F88A
:100A500000221146901E00F013F80022BDE810405D
:100A60001146501E00F00CB800F01F020121914009
:100A70004009800000F1E020C0F80011704700003C
:100A8000F0B40E4B1B680C46C3F30223C3F10705F9
:100A9000042D00D90425191D072901D2002300E0E7
:100AA000DB1E012606FA05F1491E214099409E40B1
:100AB000761E16403143F0BC00F0D8BF0CED00E0CC
:100AC000064900F0070208684FF6FF03184040EAA5
:100AD0000220034A10430860704700000CED00E05C
:100AE0000000FA052DE9F0470E46050063D0DFF857
:100AF0001C81D8F80000F7B200F00F00B04207D216
:100B000088F80070D8F8000000F00F00B04252D111
:100B100028683F4C810712D5400703D5206840F470
:100B2000E05020602878000703D5206840F460403A
:100B300020602068A96820F0F00008432060287831
:100B4000C0072BD0324968680839012810D00968DD
:100B5000022810D0890700292DDA216821F003012D
:100B600001432160FFF718FF814641F2883A0EE009
:100B700009688903EFE78901EDE700BFFFF70CFF84
:100B8000A0EB0901514502D90320BDE8F087206898
:100B9000696800F00C00B0EB810FEFD1D8F80010BD
:100BA000404601F00F01B14207D90770006800F01C
:100BB0000F00B04201D00120E7E72878400705D5B3
:100BC0002068E96820F4E050084320602878000796
:100BD00006D52068296920F4604040EAC100206001
:100BE00000F052F82168F02292FAA2F201F0F0012E
:100BF000B2FA82F2D140074A515CC8400649086007
:100C00000020FFF7F1FE0020BFE70000003C02409B
:100C10000838024030310008040000200148006814
:100C2000704700000400002008480949006809686E
:100C30004FF4E05292FAA2F201F4E051B2FA82F2D9
:100C4000D140044A515CC8407047000004000020B5
:100C5000083802404031000808480949006809681E
:100C60004FF4604292FAA2F201F46041B2FA82F2C9
:100C7000D140044A515CC840704700000400002085
:100C80000838024040310008154810B5006810F0DF
:100C90000C02144813D01449042A0FD0082A0ED18C
:100CA0000F4C241F2268236802F03F025B0207D525
:100CB0002068C0F38810A0FB010106E0084610BDC3
:100CC0002168C1F38811A1FB00010023FFF776FA28
:100CD0002168C1F30141491C4900B0FBF1F010BD8E
:100CE000083802400024F40040787D012DE9F84FD7
:100CF00004007BD0DFF8C8822078A8F1040BC0077D
:100D0000ABF1040536D0D8F800104046C1F381019C
:100D1000012908D00068C0F3810002280AD1DBF85D
:100D20000000400206D52868800323D560680028AB
:100D3000DFD01FE0A2492079891F0870606860B188
:100D4000FFF72AFE064604E0FFF726FE801B642814
:100D500074D828688003F7D50CE0FFF71DFE06461F
:100D600005E000BFFFF718FE801B6428F0D8286854
:100D70008003F7D42078934E80074FF0010A4FF09C
:100D8000000742D5D8F80010404611F00C0F08D0EB
:100D90000068C0F3810002280AD1DBF8000040029D
:100DA00006D42868800714D5E06801281ED110E019
:100DB000E068E0B1C6F800A0FFF7EEFD814605E06F
:100DC000FFF7EAFDA0EB09000228C1D828688007D8
:100DD000F6D52868F82292FAA2F22169B2FA82F2D4
:100DE00020F0F8009140084328600EE0E5E037600D
:100DF000FFF7D2FD814605E0FFF7CEFDA0EB09002D
:100E000002281BD828688007F6D42078000726D54A
:100E10006D48616999B1C0F800A0FFF7BDFD81463A
:100E200006E000BFFFF7B8FDA0EB0900022805D8D7
:100E300063486C3000688007F4D510E087E00760F5
:100E4000FFF7AAFD814605E0FFF7A6FDA0EB09002C
:100E500002287CD85A486C3000688007F4D4207887
:100E6000400749D556483830016841F0805101604B
:100E7000006800F0805000905448016841F480718F
:100E80000160FFF789FD814606E000BFFFF784FDA2
:100E9000A0EB090002285AD84C480068C005F5D5D7
:100EA000DFF81C91207A09F1680989F80000A06830
:100EB00088B1FFF771FD009008E000BFFFF76CFDFF
:100EC0000099411A41F2883081426ED8D9F8000069
:100ED0008007F3D510E0FFF75FFD009008E000BF4A
:100EE000FFF75AFD0099411A41F2883081425CD8DF
:100EF000D9F800008007F3D4A06948B3D8F80010EF
:100F0000C1F38101022958D00228376603D0FFF7C8
:100F100043FD04464CE0FFF73FFD074605E000BFF8
:100F2000FFF73AFDC01B64283FD828688001F7D43A
:100F3000D4E90701084347F6C07292FAA2F2616A47
:100F4000B2FA82F291404FF0FF33A26A01E02CE046
:100F500031E003EB52024FF4403393FAA3F3B3FAB8
:100F600083F39A40114308434FF0706292FAA2F261
:100F7000E16AB2FA82F291400843CBF80000C6F869
:100F800060A0FFF709FD044605E000BFFFF704FD80
:100F9000001B642809D828688001F7D50BE000BF42
:100FA000FFF7FAFC001B642802D90320BDE8F88F84
:100FB00028688001F4D40020F8E70120F6E700005B
:100FC0000838024000004742800E4742007000404F
:100FD00070B5040005D00025A56294F8510010B149
:100FE00006E0012070BD84F85050204600F030F833
:100FF000022084F851002068016821F0400101605E
:10100000D4E901010843D4E903121143084361699B
:101010000843218B01F400710843E1690843216A08
:101020000843A16A084321680860A069042101EA15
:101030001040616A0843216848602068C16921F452
:101040000061C1616565012084F85100002070BD18
:10105000F0B502682848002402250326052787B03A
:1010600082420ED12548016841F480510160006838
:10107000694600F480500590E020CDE90005204845
:101080001CE01E491F4B091F1F489A421ED10A68C7
:1010900042F480420A60096802AA01F48041059185
:1010A0000C21CDE9001582E8D0006946FFF794FBDA
:1010B0004FF48060CDE900051448694602AA82E831
:1010C000D00000BFFFF788FB07B0F0BD104B9A427D
:1010D000FAD10A6842F400420A600968029401F4F5
:1010E000004105914FF4E051CDE900150621CDE90D
:1010F00003616946E6E700000030014044380240E1
:101100000000024000380040000802400004024095
:10111000003C00404FF0E0210428086903D020F093
:1011200004000861704740F00400FAE710B5401E63
:10113000B0F1807F01D3012010BD4FF0E024606149
:101140000F21601700F092FC0020A06107202061B1
:10115000002010BD10B504460068416994F839209C
:10116000C1F3C011212A0BD151B1416921F0800195
:101170004161206B08B1FFF752F9204601F098F861
:101180002068416994F83A20C1F38011222A0BD1DA
:1011900051B1416921F040014161606B08B1FFF735
:1011A0003EF9204601F076F8002010BD704700009F
:1011B00070B5026804461068D168536910F00F0FCB
:1011C00051D003F0010501F4907635435DD0C2079C
:1011D00005D0CA0503D5E26B42F00102E263420783
:1011E00005D5DA0703D0E26B42F00202E263820720
:1011F00005D5DA0703D0E26B42F00402E26302078E
:1012000005D5DA0703D0E26B42F00802E263E26B35
:10121000002A34D0800604D5880602D5204601F085
:1012200050F820684069E16BC0F3801001F00801BC
:101230000143204624D001F02DF820684169490679
:101240001AD5416921F040014161606BA0B11B4991
:101250000165606BFFF72AF9002810D0606B016D03
:10126000BDE87040084783060FD58B060DD5204694
:10127000BDE8704001F025B82046FFF797FF70BD2C
:10128000FFF794FF0020E06370BD030606D50B0650
:1012900004D52046BDE8704001F0B0B94006F3D552
:1012A0004806F1D5D168204621F04001D1602021C7
:1012B00084F8391000F0DEF970BD0000BD2100088F
:1012C00070B5040004D094F83900002510B106E090
:1012D000012070BD84F83850204600F023F8242007
:1012E00084F839002068C16821F40051C1602046AB
:1012F00001F02EF82068016921F490410161206815
:10130000416921F02A0141612068C16841F400511E
:10131000C160E563202084F8390084F83A00002099
:1013200070BD00002DE9F04704460668DFF838C1BB
:1013300002200121032207230025870686B04FF0F3
:10134000400A4FF48069664544D1484ED6F800C043
:101350004CF0100CC6F800C036680DF1040806F019
:10136000100605965602009688E80F006946404828
:10137000FFF732FA404E3F48B8463060C6E9017583
:10138000C6E903597561B561F56135624F4630466E
:101390007562FFF76DF918B18B2138A001F0DEF905
:1013A0006663B463344E334860367830C6E9035719
:1013B0007561B561F5613562756286E80105304693
:1013C000FFF756F908B19D2149E02663B46306B0E2
:1013D000BDE8F087DFF8B4C06645F8D1234E361F6C
:1013E000D6F800C04CF4003CC6F800C036680DF1D9
:1013F000040806F4003605966026009688E80F007B
:1014000069462348FFF7E8F91B4E2248C036B84624
:101410003060C6E90175C6E903597561B561F561CA
:1014200035624F4630467562FFF722F918B1C72181
:1014300012A001F093F96663B463174E1548C6E92C
:1014400003577561B561F56135621830756286E8DC
:1014500001053046FFF70CF90028B6D0D92107A0C6
:1014600001F07CF9B1E7000000100140443802406F
:101470000000024040640240B80200202E2E2F538C
:1014800072632F75736172742E6300000044004014
:10149000000C024088600240D8030020F8B50446E2
:1014A00090F83A0020283CD1C1B3BAB394F8380080
:1014B000012836D0012084F83800A162A2850025D9
:1014C000E563222084F83A00636B1748D863636BA6
:1014D00016481864636B1648D864606B134605653C
:1014E0000846666B216802463046091DFFF72AF957
:1014F000206801684168009184F83850C16841F45F
:101500008071C1602068416941F00101416120683A
:10151000416941F0400141610020F8BDFFE7012031
:10152000FBE70220F9E70000172200085322000819
:10153000CD210008704770472DE9F843044690F824
:1015400039001F4616460D46202850D1A5B19EB140
:1015500094F8380001284AD0012084F838004FF070
:101560000008C4F83C80212084F83900FFF714FA01
:10157000A6848146E68426E00120BDE8F883E08C5D
:10158000401EE084A0684B46B0F5805F4FF000023B
:101590004FF080012046009703D001F060F8E8B9D1
:1015A0000DE001F05CF8C8B928882168C0F3080094
:1015B0004860206908B16D1C05E0AD1C03E021689E
:1015C00015F8010B4860E08C0028D8D14B4600226A
:1015D00040212046009701F042F808B10320CCE7F3
:1015E000202084F8390084F838800020C5E70220E4
:1015F000C3E7000070B5044690F83900202830D1C8
:1016000069B362B394F8380001282AD0012084F825
:1016100038002162A284E2840025E563212084F859
:101620003900236B1048D863236B10481864236B70
:101630000F48D864206B134605652668206B321D61
:10164000FFF780F821686FF04000086084F8385098
:101650002068416941F080014161002070BD012096
:1016600070BD022070BD00005D2200088B220008C2
:10167000CD2100080C4B026800219A4207D1006B73
:101680000068026822F00102026008480AE0084B84
:101690009A4208D1006B0068026822F001020260E1
:1016A0000248863001707047001001402C01002074
:1016B000004400407047FEE770B5344C201D0FC851
:1016C00000F028FA012807D0122131A001F00CF80F
:1016D00041F28830FFF772F804F114000FC800F0EF
:1016E00019FA2A4D41F270768035032817D04FF44D
:1016F0007A70FFF763F833212AA001F031F8252131
:101700002BA000F0F1FF04F174000FC800F002FA02
:101710003046FFF753F8281D0FC800F0FBF904F11D
:1017200024000FC800F0F6F904280FD0252120A0CE
:1017300000F0DAFF04F174000FC800F0EBF9304656
:10174000FFF73CF8281D0FC800F0E4F904F134005D
:101750000FC800F0DFF9052810D0252114A000F0F3
:10176000C3FF04F174000FC800F0D4F93046FFF74E
:1017700025F82D1D95E80F0000F0CCF920780228FF
:1017800001D0002070BD012070BD000020000020AD
:1017900053656E64204154206973204572726F72E4
:1017A0000D0A00006C696E65203D2025640D0A005D
:1017B00053656E64204350494E2020697320457262
:1017C000726F7220476F20546F204346554E204D54
:1017D0006F64650D0A000000094808B5016841F40E
:1017E00080010160016801F480010091016841F409
:1017F00000110160006800F40010009008BD0000B6
:1018000030380240154808B5016841F08001016098
:10181000016801F080010091016841F0040101605C
:10182000016801F004010091016841F001010160CB
:10183000016801F001010091016841F002010160BD
:10184000016801F002010091016841F008010160A6
:10185000006800F00800009008BD00003038024029
:1018600010B5032211463A20FFF70AF93A20FFF794
:10187000FBF8012203214620FFF702F94620FFF77B
:10188000F3F8002207212620FFF7FAF82620FFF7B9
:10189000EBF8012207211120FFF7F2F81120FFF7E2
:1018A000E3F8032207211020FFF7EAF81020FFF7E2
:1018B000DBF8002203212520FFF7E2F8BDE8104005
:1018C0002520FFF7D1B80000104810B50E4901607F
:1018D0004FF48271416000218160C1604FF4007259
:1018E0000161C0E90512C1610162416281620A21A0
:1018F000C162FFF76DFB002805D0BDE8104047210D
:1019000003A000F02BBF10BD0030014038040020C0
:101910002E2E2F5372632F7370692E630000000008
:10192000104810B50E4901604FF4827141600021EA
:101930008160C1604FF400720161C0E90512C161AC
:101940000162416281620A21C162FFF741FB002806
:1019500005D0BDE810405D2103A000F0FFBE10BD22
:1019600000380040900400202E2E2F5372632F73F6
:1019700070692E6300000000104810B50E49016028
:101980004FF48271416000218160C1604FF40072A8
:101990000161C0E90512C1610162416281620A21EF
:1019A000C162FFF715FB002805D0BDE81040732188
:1019B00003A000F0D3BE10BD003C0040E8040020AE
:1019C0002E2E2F5372632F7370692E630000000058
:1019D0000D4810B50B4901604FF4E1314160002121
:1019E00081600C22C160C0E904128161C161FFF70E
:1019F00067FC002805D0BDE810404E2103A000F090
:101A0000ADBE10BD00100140380200202E2E2F5315
:101A100072632F75736172742E6300000D4810B5E8
:101A20000B4901604FF4E1314160002181600C22DB
:101A3000C160C0E904128161C161FFF741FC002867
:101A400005D0BDE81040612103A000F087BE10BDA5
:101A500000440040780200202E2E2F5372632F7511
:101A6000736172742E630000FEE770470907090E68
:101A7000002806DA00F00F0000F1E02080F8141DC5
:101A8000704700F1E02080F80014704770470000B4
:101A900010B5054C601CB4F88210FEF7D9FB00208D
:101AA000A4F8820010BD0000B201002070470000C1
:101AB00070B54FF47A7440F61B450123224629463F
:101AC0000BA000F0D9F80D2810D00D480FC800F079
:101AD00021F8072802D00BA000F042FE224629463A
:101AE000BDE87040012302A000F0C6B870BD000040
:101AF0003132302E37372E3231332E38300000005D
:101B00007400002043495020495320434C4F534513
:101B10000D0A00002DE9F84F1C4C074600209346A3
:101B20001D46207041F288394FF4FA5A43F30726D4
:101B30001FFA81F8FEF730FF00903846414600F06A
:101B4000F1FD2078864207D0022805D0FEF724FF59
:101B50000099411A5945F4D3072E02D0082E02D01D
:101B600004E0484600E05046FEF728FE2078864212
:101B700003D1C0B240B2BDE8F88F681E40B260F336
:101B800007050028D6DC2078F4E7000020000020BC
:101B900010B5104C04F144000FC8FFF7BBFF062836
:101BA00017D02078022814D104F164000FC8FFF781
:101BB000B1FF082802D008A000F0D2FD4FF4FA606F
:101BC000FEF7FCFD443494E80F00BDE81040FFF739
:101BD000A1BF10BD200000204E4554204953204392
:101BE0004C4F53450D0A00002DE9F0411C4C88B0C4
:101BF00000260F4680462670FEF7CEFE054640467C
:101C0000FEF743FB024617A1684600F0B9FDC1B2DA
:101C1000684600F087FD20780E2809D0FEF7BCFE4C
:101C2000401B6428F7D32078022801D1FFF740FF3A
:101C3000FEF7B2FE054626704046FEF726FB81B24F
:101C4000404600F06FFD20780F2804D0FEF7A4FE78
:101C5000401BB842F7D3207808B040B2BDE8F0810D
:101C60002000002041542B43495053454E443D3001
:101C70002C25640D0A0000002DE9F0411D46174691
:101C800090B00B46024614A1684600F079FD1A4C4C
:101C900086B2002084F80000FEF77EFE80463146C2
:101CA000684600F03FFD20780D2813D0022808D0A8
:101CB000FEF772FEA0EB0800B842F4D320780D289E
:101CC00008D06D1E6DB2002DE6DCC0B240B210B07F
:101CD000BDE8F0810D20FAE741542B4349504F50A5
:101CE000454E3D302C22544350222C222573222C69
:101CF00025640D0A000000002000002010B50D4CE6
:101D00002068401C206000F0D1FF08B100F0D6FF31
:101D1000A068401EA06005D16068401C60604FF460
:101D20007A70A060E068401CE060BDE81040FEF7FB
:101D300039BE0000B400002030B591B001200390FE
:101D40000224102004900094002506940820CDE978
:101D50000750C820099004200A900B906846FEF7AF
:101D6000C5FF00B1FEE70CA90F2081E831004FF458
:101D7000A0500F904FF48050109003210CA8FEF754
:101D8000B1FE00B1FEE7FEF749FF4FF47A71B0FBF8
:101D9000F1F0FFF7CBF90420FFF7BCF90022114660
:101DA000501EFEF76DFE11B030BD00000D480168F9
:101DB00041F0010101600B4A002108321160026804
:101DC000094B1A400260031D084A1A60026822F497
:101DD0008022026003480C30016005495806086003
:101DE0007047000000380240FFFFF6FE103000246C
:101DF00008ED00E02DE9F843934800680168C1F35D
:101E00000011002934D00168406800908E48FFF727
:101E1000A1F98E48006840688D4CC0F18000C5B2C1
:101E2000A4F8820029468B48FEF712FA2A46611C64
:101E30008848FEF7F4F9FFF72BFE8022611C8248E8
:101E4000FFF72CFB002001E0401CC0B2A842FBD3EE
:101E5000804F814E7C1914F8010C3E2806D0042DC9
:101E60000AD314F8021C0D2904D005E00E203070AE
:101E7000BDE8F8830A2818D0282DF9D30A28F7D10D
:101E80001120307075A17348FEF7EDF90028EFD0EE
:101E900075A17048FEF7E7F9C01BC0B23918BDE85C
:101EA000F84373A0083100F05BBCA4F109000222E2
:101EB00072A1FEF7F1F9022728B9201F022270A1B2
:101EC000FEF7EAF948B1E81F3B280ED2E01F0522D1
:101ED0006CA1FEF7E1F938B107E001203070042170
:101EE0006AA000F001FC00E037701F2D12D3A4F1AE
:101EF0001400062267A1FEF7CFF958B967A155482B
:101F0000FEF7B1F910B10320307000E0377065A022
:101F100000F026FC1B2D24D3A4F1130080460522DB
:101F200064A1FEF7B9F928B904203070494963A0CB
:101F300000F016FC1F2D14D34046072263A1FEF7C4
:101F4000ABF970B963A14348FEF78DF920B962A1DE
:101F50004048FEF788F908B1052030705FA000F016
:101F6000FFFBA5F10900072810D261A13948FEF74F
:101F70007AF958B114F8030C302805D00B203070D2
:101F80005EA000F0EDFB0FE00620F8E7102D0BD36C
:101F90005FA13048FEF767F930B114F8031C60A068
:101FA00000F0DEFB08203070A5F1110031280ED2C0
:101FB00061A12848FEF757F948B114F8030C3028FE
:101FC00012D160A000F0CCFB0D2030700DE0422D4E
:101FD0000BD3A4F11800092257A1FEF75DF920B92F
:101FE00014F80C0C34280DD037700727122D15D398
:101FF00059A11848FEF737F980B114F8030C3028BE
:1020000008D00BE00C20307014F8181C55A000F01C
:10201000A7FBEAE75AA000F0A3FB37705DA10D48CB
:10202000FEF721F920B15EA000F09AFB0F2030707E
:102030000D2DFFF41DAF5DA10648FEF714F9002831
:102040003FF416AF377013E77802002078030020C2
:10205000B2010020400500202000002052454356D8
:102060002046524F4D3A00002B4950443233000075
:102070002D2D524543562D2D2D2573004154000022
:102080004F4B00004552524F5200000061740D0A40
:10209000000000002B4350494E3A00005245414495
:1020A000590000002D2D2D204350494E202D2D2D5F
:1020B000200D0A002B4353513A0000002D2D2D20F6
:1020C000435351202D2D2D20257300002B434752C3
:1020D00045473A00302C3100302C35002D2D2D2075
:1020E0004347524547202D2D2D200D0A00000000AA
:1020F0002B4E45544F50454E3A0000002D2D2D20BB
:102100004E45544F50454E202D2D2D200D0A0000D8
:102110002B4E4554434C4F53453A203000000000AD
:102120002D2D2D2D204E4554434C4F5345202D2D04
:102130002D2025630D0A00002B4349504F50454E7A
:102140003A0000002D2D2D2D204349504F50454E73
:10215000202D2D2D200D0A002B434950434C4F5369
:10216000450000002D2D2D2D204349504F50454E48
:102170005F4552524F52202D2D2D2025630D0A0010
:102180002D2D2D2B434950434C4F53453A2D2D2D8A
:102190000D0A00002B43495053454E443A000000BD
:1021A00043495053454E440D0A0000002B4950430B
:1021B0004C4F53453A20302C3100000010B5806B55
:1021C0000021C185C184FEF7F1FF10BD70B5846B9D
:1021D0002068406994F83910C0F3C0100025212907
:1021E00004D118B1E584204600F062F82068406907
:1021F00094F83A10C0F38010222904D118B1E58573
:10220000204600F047F8E06B40F01000E063204605
:10221000FEF7CCFF70BD10B50146806B09680968F8
:10222000C90513D40021C1850168CA6822F48072EF
:10223000CA6001684A6922F001024A6101684A697C
:1022400022F040024A61202180F83A10FFF772F92B
:1022500010BD10B5806BFFF76EF910BD10B50146CB
:10226000806B09680968C9050CD40021C184016824
:102270004A6922F080024A610068C16841F0400169
:10228000C16010BDFFF7F6F910BD10B5806BFFF708
:1022900011FA10BD0168CA6822F49072CA60016820
:1022A0004A6922F001024A61202180F83A10704701
:1022B0000168CA6822F0C002CA60202180F8391083
:1022C000704710B590F83A10222901D0022010BDB5
:1022D0008168B1F5805F11D00169002901681FD0C4
:1022E000496801F07F03816A4A1C82620B70C18DCC
:1022F000491E0904090CC18518D026E00269816ACB
:10230000002A0268526805D0D2B20A80816A491C4C
:102310008162ECE7C2F308020A80816A891CF7E750
:102320004A68816A4B1C83620A70E0E70168CA68E8
:1023300022F49072CA6001684A6922F001024A617F
:10234000202180F83A10FFF7F5F8002010BD0000BA
:102350002DE9F04104460068016921F44052E1682A
:10236000114301612168C86849F20C6290432369F6
:10237000A268E5691A4363692B431A430243CA60A2
:102380002168486920F44072A06910434861E169FE
:102390006425B1F5004F9748974A21684FF03208FD
:1023A0003FD0914201D081427CD1FEF755FC00EB39
:1023B000C00101EB001061688900B0FBF1F6FEF787
:1023C0004BFC00EBC00101EB001061688900B0FB21
:1023D000F1F0B0FBF5F06FF01801484306EB800117
:1023E00008EB0110B0FBF5F000F0F006FEF734FC4E
:1023F00000EBC00101EB001061688900B0FBF1F057
:10240000B0FBF5F006EB0016FEF726FC00EBC00172
:1024100001EB001061688900B0FBF1F7FEF71CFCCE
:10242000D2E0914201D081423DD1FEF715FC00EB94
:10243000C00101EB001061684900B0FBF1F0B0FB96
:10244000F5F00601FEF708FC00EBC00101EB0010FF
:1024500061684900B0FBF1F7FEF7FEFB00EBC0013D
:1024600001EB001061684900B0FBF1F0B0FBF5F042
:102470006FF01801484307EB800108EBC100B0FB87
:10248000F5F000F0F80006EB4006FEF7E5FB00EB88
:10249000C00101EB001061684900B0FBF1F7FEF7E5
:1024A000DBFB3CE055E0FEF7BFFB00EBC00101EBBE
:1024B000001061684900B0FBF1F0B0FBF5F00601D7
:1024C000FEF7B2FB00EBC00101EB001061684900B0
:1024D000B0FBF1F7FEF7A8FB00EBC00101EB001029
:1024E00061684900B0FBF1F0B0FBF5F06FF0180146
:1024F000484307EB800108EBC100B0FBF5F000F0AA
:10250000F80006EB4006FEF78FFB00EBC00101EB85
:10251000001061684900B0FBF1F7FEF785FB00EBA6
:10252000C00101EB001061684900B0FBF1F0B0FBA5
:10253000F5F06FF01801484307EB800108EBC1008C
:10254000B0FBF5F000F00700216830448860BDE87A
:10255000F081FEF769FB00EBC00101EB0010616840
:102560008900B0FBF1F6FEF75FFB00EBC00101EB69
:10257000001061688900B0FBF1F0B0FBF5F06FF07E
:102580001801484306EB800108EB0110B0FBF5F0A1
:1025900000F0F006FEF748FB00EBC00101EB001075
:1025A00061688900B0FBF1F0B0FBF5F006EB0016B6
:1025B000FEF73AFB00EBC00101EB001061688900F7
:1025C000B0FBF1F7FEF730FB00EBC00101EB0010B0
:1025D00061688900B0FBF1F0B0FBF5F06FF0180115
:1025E000484307EB800108EB0110B0FBF5F000F069
:1025F0000F00A9E7001401400010014090F83910C5
:10260000212901D0022070478168B1F5805F016AFD
:102610000BD04A1C0262026809785160C18C491EC5
:102620000904090CC1840ED017E009880268C1F3BF
:102630000801516001690029016A02D0491C016248
:10264000ECE7891CFBE70168CA6822F08002CA60D7
:102650000068C16841F04001C160002070472DE969
:10266000F041984617460E460446069D1DE0681C3C
:102670001BD02DB1FEF790F9A0EB0800A84214D9A9
:102680002068C16821F4D071C1602068416921F0DF
:1026900001014161202084F8390084F83A000020CB
:1026A00084F838000320BDE8F0812068006836EA2D
:1026B000000004D00020B842D9D00020F3E7012068
:1026C000F9E700000148FEF773BD00003802002062
:1026D00010B50348FEF76CFDBDE81040FFF78ABB5C
:1026E00078020020FEE700002DE9F0410E46074683
:1026F000FEF752F9094D04462878012804D1FEF767
:102700004BF9001B0A28F7D3324639460448FEF736
:1027100071FF01202870BDE8F08100002C0100202D
:10272000380200202DE9F0410E460746FEF734F945
:10273000094D04462878012804D1FEF72DF9001B25
:102740000A28F7D3044832463946C630FEF752FF0E
:1027500001202870BDE8F081B2010020FEE70000F2
:102760000FB4054B10B503A9044A029800F02CF8E9
:1027700010BC5DF814FB0000692D0008F800002073
:102780000FB4084B10B504A902AA039800F01CF876
:10279000044602A9002000F0B8F9204610BC5DF8FC
:1027A00014FB00000B2B000802E008C8121F08C130
:1027B000002AFAD170477047002001E001C1121FC2
:1027C000002AFBD1704700002DE9FF4F8BB08846EF
:1027D0000546002606E025280BD0DDE90D129047BE
:1027E0006D1C761C28780028F5D10FB03046BDE866
:1027F000F08F0024A146A2460122AE4900E0044326
:1028000015F8013F203B02FA03F00842F7D128787F
:102810002A2810D06FF02F022878A0F13001092962
:1028200015D809EB890102EB410144F0020400EBE9
:1028300001096D1CF0E758F8041B5FEA010903D594
:1028400044F40054C9F1000944F002046D1C2878D6
:102850002E2817D115F8010F44F004042A280ED0B1
:102860006FF02F022878A0F1300109290AD80AEB6D
:102870008A0102EB410100EB010A6D1CF2E758F8F6
:1028800004AB6D1C28786C280FD006DC4C2817D0C0
:1028900068280DD06A2814D104E0742810D07A2852
:1028A0000FD10DE044F400140AE044F4801401E078
:1028B00044F440146978814202D104F580146D1CFF
:1028C0006D1C2878692865D006DC00288DD0632827
:1028D00027D0642806D15DE06E2808D073282AD05E
:1028E000752877D0DDE90D129047761CE0E0C4F33F
:1028F0000250022809D003280DD0D8F8001004286F
:102900000DD00E6008F10408D2E0D8F80010F217DC
:10291000C1E90062F6E7D8F800100E80F2E70E7009
:10292000F0E718F8041B8DF8001000208DF8010066
:10293000EB46012003E058F804BB4FF0FF3061077D
:102940004FF0000701D40AE07F1C57450DDA87429B
:10295000FADB1BF807100029F6D106E07F1C87423E
:10296000FCDB1BF807100029F8D1DDE90D23A9EBEA
:1029700007008146214600F0B1F83044C61904E052
:10298000DDE90D121BF8010B90477F1EF8D221469E
:10299000484688E058F8040BC4F302514FF00A0B84
:1029A000032900D100B2042900D140B2002802DA84
:1029B00040422D2102E0210505D52B218DF8241060
:1029C000012104E006E0E10710D02021F6E708AF7E
:1029D000089113E058F8040BC4F302514FF00A0BAE
:1029E000032900D180B2042900D1C0B20021EEE752
:1029F0005946FDF760FC303107F8011D0028F7D17A
:102A0000ADEB070000F1200B600702D524F4803401
:102A100001E04FF0010ADA4502DDAAEB0B0000E00D
:102A20000020824600EB0B0108980144A9EB01004D
:102A30000A90E00306D4DDE90D2321460A9800F050
:102A40004DF806444FF0000908E009A911F8090003
:102A5000DDE90D12904709F10109761C08998945B5
:102A6000F3DBE0030CD5DDE90D2321460A9800F0E5
:102A700035F8064404E0DDE90D1230209047761C5D
:102A8000BAF10001AAF1010AF5DC05E0DDE90D1259
:102A900017F8010B9047761CBBF10001ABF1010B5D
:102AA000F4DC0A982146DDE90D2300F005F8064420
:102AB0006D1C97E6092801002DE9F0410446002528
:102AC0001E461746880404D405E039462020B04746
:102AD0006D1C641EF9D52846BDE8F0812DE9F04152
:102AE000044600251E469046C80301D5302700E065
:102AF0002027880404D505E041463846B0476D1CC0
:102B0000641EF9D52846BDE8F0810A68531C0B60A5
:102B10001070704710B504460D4800F0D5F90C4907
:102B20000C4AE068083960B1086808E0A04205D1A5
:102B30001068E060BDE8104000F0DABA8068002854
:102B4000F4D11068E0600868A0600C60F2E7000053
:102B5000E8000020D000002070B50546002403E006
:102B6000002100F0F5F9641C55F824000028F7D185
:102B700070BD000070B50446807B0D46C00711D0C3
:102B8000A368002B0ED00B48C4600220A07304F190
:102B90000C009847022806D0032804D0832D02D0C9
:102BA0000120A07370BD2146BDE87040084600F0CA
:102BB0009DB80000C40000200B484FF47A710068F3
:102BC000B0FBF1F0401EB0F1807F0BD24FF0E0215E
:102BD0004861064AF02082F8140D00208861072021
:102BE00008617047FEE70000040000200FE000E0ED
:102BF0000148006870470000B400002010B504468A
:102C00000420FEF787FA0148046010BD1C00002074
:102C100070B5194CE378002B26D02579174805EBC1
:102C200045026D1C10F8221000EB820021704268F2
:102C30002261806805F01F05606125715B1EE370ED
:102C400010B1812911D012E0A0680AE0607908B1C2
:102C500000F016F821782269A069FFF78BFFA069C0
:102C60000068A0610028F1D170BD01238373BDE825
:102C70007040FFF77FBF0000C400002080050020E7
:102C800070B50948002545710126846809E0E07B9C
:102C900030B1A673E573002282212046FFF76AFF58
:102CA0002468002CF3D170BDC400002002480068E5
:102CB000002800D001207047E0000020014800F00B
:102CC00003B90000E800002010B5044600F004FA43
:102CD0002046BDE81040FFF71DBF10B5044600F0C8
:102CE00000FA2046BDE81040FFF714BF2DE9F0417F
:102CF0001C4E05468846D6E90207044600E00068F7
:102D0000A84203D00028FAD1BDE8F0810028FBD00A
:102D1000A87BB0B10020A87307E0A54204D02A46E2
:102D200087212046FFF726FF2468002CF5D1AB68E9
:102D30003BB1454505D00022832105F10C00F5602B
:102D40009847B068854209D10068B06008E0016822
:102D5000A94202D12968016002E008460028F6D1A4
:102D6000F760D1E7C400002013B54FF6FF730122CE
:102D700069460248FEF7E0FB00981CBD38020020BF
:102D8000FDF718FEFEF7D8FF6420FFF737FFFEF7C8
:102D900039FDFEF721FDFEF71BFEFEF7EDFDFEF708
:102DA00093FDFEF7BDFDFEF739FEFEF759FD8022CB
:102DB0001F492048FEF772FB1E480068C16841F0B9
:102DC0001001C16080221C491C48FEF767FB1B48AC
:102DD0000068C16841F01001C160FEF76DFC10F0A1
:102DE000FF0F1DD016A0FFF7BBFC00BFFFF7E4FEEE
:102DF00000F05EF800211A4800F0AAF81948FFF721
:102E0000ABFE19A0FFF7ACFC1FA0FFF7A9FC1F4CFD
:102E100000F090F80028FBDC6088401C6080F7E739
:102E20001BA0FFF79DFCFEF7B3FEFEF741FEDDE7BA
:102E30002D01002038020020B3010020780200207C
:102E40002D2D2D2D2D496E69742053696D636F6D85
:102E5000204661696C2D2D2D2D2D0D0A00000000DE
:102E6000E80000204831000853797374656D2043F1
:102E70006F6E74696B6920496E697453756363651D
:102E800073732E2E2E0000000D0A00000800002093
:102E90002D2D2D2D2D496E69742053696D636F6D35
:102EA00020446F6E652D2D2D2D2D0D0A0000000084
:102EB00004488A21817000210171C1708160C16064
:102EC00070470000C4000020002808D0817B012941
:102ED00001D0022903D10121C1730148417170471A
:102EE000C400002070B50C4CE378202B11D025795C
:102EF0001D4405F01F05657005EB4506074D5B1C7D
:102F000005F8261005EB8601C1E90120E3700020D9
:102F100070BD012070BD0000C400002080050020AD
:102F200070B5034CE568FFF725FEE56070BD000055
:102F3000C400002010B5054C607908B1FFF7A0FE71
:102F4000FFF766FEE0786179084410BDC4000020F8
:102F50000C4A30B493681C4600E01B68834201D0E1
:102F6000002BFAD183420AD0046090600122827360
:102F7000002282810A4630BC8121FFF7D1BF30BCDC
:102F800070470000C40000202DE9F0410646038888
:102F9000244D00202BB1592B08D030800320BDE8F0
:102FA000F0812860592030800120F8E7872905D07A
:102FB0008229F7D1804600272C6824E0286800E0A9
:102FC000806810B1C1689142FAD0286038B9E9E749
:102FD000CB68934202D18968816000E0084681682D
:102FE0000029F5D1DEE7204600F068F848B1224616
:102FF0008821E068FFF776FF40B10A480830FFF704
:1030000063FF2746A468002CEDD1CBE7C4F80C8001
:10301000A16840460FB1B96000E02960A06000F0EF
:1030200067F8C8E7E000002010B50446008828B122
:10303000BB2812D000202080032010BD0FA0FFF776
:103040008FFB17A0FFF78CFB44F620611548FFF7B4
:1030500044FEBB202080012010BD8829F9D14FF407
:10306000FA7111A0FEF7C0FD0F2802D1124901200C
:1030700008700C48FFF728FEEBE70000436F6E7402
:10308000696B692053797374656D2055736172742F
:1030900072782050726F636573732E2E2E000000BD
:1030A0000D0A00001C01002068656C6C6F20776FB2
:1030B000726C640D0A0000000800002010B5044680
:1030C000FFF796FD2168401A6168401C814201D2D9
:1030D000012010BD002010BDD0E900121144016094
:1030E000704710B504464160FFF782FD206010BDB7
:1030F00070B50C4C206890B1FFF77AFD2168D1E9DA
:1031000000231A44121A06E0D1E900352B441B1A99
:10311000934200D21A4689680029F5D110446060B4
:1031200070BD0000E000002000061016000610161A
:103130000000000000000000010203040607080967
:1031400000000000010203040C0000200000000049
:1031500075736172747278320000000041542B4321
:103160004950434C4F53453D300D0A0041542B43C9
:1031700046554E3D300D0A0041542B4346554E3DB9
:10318000310D0A0041542B43475245473F0D0A0079
:1031900041542B4350494E3F0D0A000041542B4EE1
:1031A0004554434C4F53450D0A00000041542B4EEB
:1031B00045544F50454E0D0A0000000041542B432A
:1031C00053510D0A0000000041540D0A0000000098
:1031D0004576656E742074696D657200FC31000877
:1031E00000000020FC000000A8270008F8320008BA
:1031F000FC000020040A0000B827000800000000BE
:103200000024F4000000000000000000503100081D
:10321000293000080000000000000000000000004D
:10322000C831000804000000F40100000A01000099
:10323000903100080A000000F401000014030000AF
:10324000BC31000808000000F40100003C0400004C
:10325000843100080B000000F40100003C05000070
:10326000AC3100080C000000F40100000106000071
:103270005C3100080F000000F401000001070000AD
:103280009C3100080D000000F4010000010800005E
:103290006C3100080B0000008813000001090000D9
:1032A000783100080B00000000000000010A000057
:1032B0000000000000000000E80300000000000023
:1032C00000000000000000000000000000000000FE
:1032D00000000000000000000000000000000000EE
:1032E0000000000000000000D0310008892F000815
:0832F0000000000000000000D6
:040000050800018569
:00000001FF
